{
  "contractName": "Election",
  "abi": [
    {
      "inputs": [],
      "stateMutability": "nonpayable",
      "type": "constructor"
    },
    {
      "inputs": [
        {
          "internalType": "uint256",
          "name": "",
          "type": "uint256"
        }
      ],
      "name": "candidates",
      "outputs": [
        {
          "internalType": "uint256",
          "name": "id",
          "type": "uint256"
        },
        {
          "internalType": "string",
          "name": "name",
          "type": "string"
        },
        {
          "internalType": "uint256",
          "name": "voteCount",
          "type": "uint256"
        }
      ],
      "stateMutability": "view",
      "type": "function",
      "constant": true
    },
    {
      "inputs": [],
      "name": "candidatesCount",
      "outputs": [
        {
          "internalType": "uint256",
          "name": "",
          "type": "uint256"
        }
      ],
      "stateMutability": "view",
      "type": "function",
      "constant": true
    },
    {
      "inputs": [
        {
          "internalType": "address",
          "name": "",
          "type": "address"
        }
      ],
      "name": "voters",
      "outputs": [
        {
          "internalType": "bool",
          "name": "",
          "type": "bool"
        }
      ],
      "stateMutability": "view",
      "type": "function",
      "constant": true
    },
    {
      "inputs": [
        {
          "internalType": "string",
          "name": "_name",
          "type": "string"
        }
      ],
      "name": "addNewCandidate",
      "outputs": [],
      "stateMutability": "nonpayable",
      "type": "function"
    },
    {
      "inputs": [
        {
          "internalType": "uint256",
          "name": "_candidateId",
          "type": "uint256"
        }
      ],
      "name": "vote",
      "outputs": [],
      "stateMutability": "nonpayable",
      "type": "function"
    }
  ],
  "bytecode": "0x60806040523480156200001157600080fd5b50620000586040518060400160405280600681526020017f53756c74616e0000000000000000000000000000000000000000000000000000815250620000ea60201b60201c565b6200009e6040518060400160405280600681526020017f4a756e676d6f0000000000000000000000000000000000000000000000000000815250620000ea60201b60201c565b620000e46040518060400160405280600781526020017f53756e6767797500000000000000000000000000000000000000000000000000815250620000ea60201b60201c565b62000545565b60026000815480929190620000ff90620001a1565b919050555060405180606001604052806002548152602001828152602001600081525060008060025481526020019081526020016000206000820151816000015560208201518160010190816200015791906200045e565b506040820151816002015590505050565b7f4e487b7100000000000000000000000000000000000000000000000000000000600052601160045260246000fd5b6000819050919050565b6000620001ae8262000197565b91507fffffffffffffffffffffffffffffffffffffffffffffffffffffffffffffffff8203620001e357620001e262000168565b5b600182019050919050565b600081519050919050565b7f4e487b7100000000000000000000000000000000000000000000000000000000600052604160045260246000fd5b7f4e487b7100000000000000000000000000000000000000000000000000000000600052602260045260246000fd5b600060028204905060018216806200027057607f821691505b60208210810362000286576200028562000228565b5b50919050565b60008190508160005260206000209050919050565b60006020601f8301049050919050565b600082821b905092915050565b600060088302620002f07fffffffffffffffffffffffffffffffffffffffffffffffffffffffffffffffff82620002b1565b620002fc8683620002b1565b95508019841693508086168417925050509392505050565b6000819050919050565b60006200033f62000339620003338462000197565b62000314565b62000197565b9050919050565b6000819050919050565b6200035b836200031e565b620003736200036a8262000346565b848454620002be565b825550505050565b600090565b6200038a6200037b565b6200039781848462000350565b505050565b5b81811015620003bf57620003b360008262000380565b6001810190506200039d565b5050565b601f8211156200040e57620003d8816200028c565b620003e384620002a1565b81016020851015620003f3578190505b6200040b6200040285620002a1565b8301826200039c565b50505b505050565b600082821c905092915050565b6000620004336000198460080262000413565b1980831691505092915050565b60006200044e838362000420565b9150826002028217905092915050565b6200046982620001ee565b67ffffffffffffffff811115620004855762000484620001f9565b5b62000491825462000257565b6200049e828285620003c3565b600060209050601f831160018114620004d65760008415620004c1578287015190505b620004cd858262000440565b8655506200053d565b601f198416620004e6866200028c565b60005b828110156200051057848901518255600182019150602085019450602081019050620004e9565b868310156200053057848901516200052c601f89168262000420565b8355505b6001600288020188555050505b505050505050565b610cf980620005556000396000f3fe608060405234801561001057600080fd5b50600436106100575760003560e01c80630121b93f1461005c5780632d307d60146100785780632d35a8a2146100945780633477ee2e146100b2578063a3ec138d146100e4575b600080fd5b610076600480360381019061007191906104a0565b610114565b005b610092600480360381019061008d9190610613565b610277565b005b61009c61037e565b6040516100a9919061066b565b60405180910390f35b6100cc60048036038101906100c791906104a0565b610384565b6040516100db93929190610705565b60405180910390f35b6100fe60048036038101906100f991906107a1565b610436565b60405161010b91906107e9565b60405180910390f35b600160003373ffffffffffffffffffffffffffffffffffffffff1673ffffffffffffffffffffffffffffffffffffffff16815260200190815260200160002060009054906101000a900460ff16156101a1576040517f08c379a000000000000000000000000000000000000000000000000000000000815260040161019890610850565b60405180910390fd5b6000811180156101b357506002548111155b6101f2576040517f08c379a00000000000000000000000000000000000000000000000000000000081526004016101e9906108bc565b60405180910390fd5b60018060003373ffffffffffffffffffffffffffffffffffffffff1673ffffffffffffffffffffffffffffffffffffffff16815260200190815260200160002060006101000a81548160ff021916908315150217905550600080828152602001908152602001600020600201600081548092919061026f9061090b565b919050555050565b600160003373ffffffffffffffffffffffffffffffffffffffff1673ffffffffffffffffffffffffffffffffffffffff16815260200190815260200160002060009054906101000a900460ff1615610304576040517f08c379a00000000000000000000000000000000000000000000000000000000081526004016102fb906109c5565b60405180910390fd5b600260008154809291906103179061090b565b9190505550604051806060016040528060025481526020018281526020016000815250600080600254815260200190815260200160002060008201518160000155602082015181600101908161036d9190610bf1565b506040820151816002015590505050565b60025481565b60006020528060005260406000206000915090508060000154908060010180546103ad90610a14565b80601f01602080910402602001604051908101604052809291908181526020018280546103d990610a14565b80156104265780601f106103fb57610100808354040283529160200191610426565b820191906000526020600020905b81548152906001019060200180831161040957829003601f168201915b5050505050908060020154905083565b60016020528060005260406000206000915054906101000a900460ff1681565b6000604051905090565b600080fd5b600080fd5b6000819050919050565b61047d8161046a565b811461048857600080fd5b50565b60008135905061049a81610474565b92915050565b6000602082840312156104b6576104b5610460565b5b60006104c48482850161048b565b91505092915050565b600080fd5b600080fd5b6000601f19601f8301169050919050565b7f4e487b7100000000000000000000000000000000000000000000000000000000600052604160045260246000fd5b610520826104d7565b810181811067ffffffffffffffff8211171561053f5761053e6104e8565b5b80604052505050565b6000610552610456565b905061055e8282610517565b919050565b600067ffffffffffffffff82111561057e5761057d6104e8565b5b610587826104d7565b9050602081019050919050565b82818337600083830152505050565b60006105b66105b184610563565b610548565b9050828152602081018484840111156105d2576105d16104d2565b5b6105dd848285610594565b509392505050565b600082601f8301126105fa576105f96104cd565b5b813561060a8482602086016105a3565b91505092915050565b60006020828403121561062957610628610460565b5b600082013567ffffffffffffffff81111561064757610646610465565b5b610653848285016105e5565b91505092915050565b6106658161046a565b82525050565b6000602082019050610680600083018461065c565b92915050565b600081519050919050565b600082825260208201905092915050565b60005b838110156106c05780820151818401526020810190506106a5565b60008484015250505050565b60006106d782610686565b6106e18185610691565b93506106f18185602086016106a2565b6106fa816104d7565b840191505092915050565b600060608201905061071a600083018661065c565b818103602083015261072c81856106cc565b905061073b604083018461065c565b949350505050565b600073ffffffffffffffffffffffffffffffffffffffff82169050919050565b600061076e82610743565b9050919050565b61077e81610763565b811461078957600080fd5b50565b60008135905061079b81610775565b92915050565b6000602082840312156107b7576107b6610460565b5b60006107c58482850161078c565b91505092915050565b60008115159050919050565b6107e3816107ce565b82525050565b60006020820190506107fe60008301846107da565b92915050565b7f596f75206861766520616c726561647920766f7465642e000000000000000000600082015250565b600061083a601783610691565b915061084582610804565b602082019050919050565b600060208201905081810360008301526108698161082d565b9050919050565b7f496e76616c69642063616e6469646174652049442e0000000000000000000000600082015250565b60006108a6601583610691565b91506108b182610870565b602082019050919050565b600060208201905081810360008301526108d581610899565b9050919050565b7f4e487b7100000000000000000000000000000000000000000000000000000000600052601160045260246000fd5b60006109168261046a565b91507fffffffffffffffffffffffffffffffffffffffffffffffffffffffffffffffff8203610948576109476108dc565b5b600182019050919050565b7f566f7465722063616e6e6f74206164642061206e65772063616e64696461746560008201527f20616674657220766f74696e672e000000000000000000000000000000000000602082015250565b60006109af602e83610691565b91506109ba82610953565b604082019050919050565b600060208201905081810360008301526109de816109a2565b9050919050565b7f4e487b7100000000000000000000000000000000000000000000000000000000600052602260045260246000fd5b60006002820490506001821680610a2c57607f821691505b602082108103610a3f57610a3e6109e5565b5b50919050565b60008190508160005260206000209050919050565b60006020601f8301049050919050565b600082821b905092915050565b600060088302610aa77fffffffffffffffffffffffffffffffffffffffffffffffffffffffffffffffff82610a6a565b610ab18683610a6a565b95508019841693508086168417925050509392505050565b6000819050919050565b6000610aee610ae9610ae48461046a565b610ac9565b61046a565b9050919050565b6000819050919050565b610b0883610ad3565b610b1c610b1482610af5565b848454610a77565b825550505050565b600090565b610b31610b24565b610b3c818484610aff565b505050565b5b81811015610b6057610b55600082610b29565b600181019050610b42565b5050565b601f821115610ba557610b7681610a45565b610b7f84610a5a565b81016020851015610b8e578190505b610ba2610b9a85610a5a565b830182610b41565b50505b505050565b600082821c905092915050565b6000610bc860001984600802610baa565b1980831691505092915050565b6000610be18383610bb7565b9150826002028217905092915050565b610bfa82610686565b67ffffffffffffffff811115610c1357610c126104e8565b5b610c1d8254610a14565b610c28828285610b64565b600060209050601f831160018114610c5b5760008415610c49578287015190505b610c538582610bd5565b865550610cbb565b601f198416610c6986610a45565b60005b82811015610c9157848901518255600182019150602085019450602081019050610c6c565b86831015610cae5784890151610caa601f891682610bb7565b8355505b6001600288020188555050505b50505050505056fea2646970667358221220783f591c0e2ed4212c42c5887ad17929c43e716e3d2eb6c118d8f3835a294a6464736f6c63430008130033",
  "immutableReferences": {},
  "source": "// SPDX-License-Identifier: MIT\r\npragma solidity ^0.8.19;\r\n\r\ncontract Election {\r\n    struct Candidate {\r\n        uint256 id;\r\n        string name;\r\n        uint256 voteCount;\r\n    }\r\n\r\n    mapping(uint256 => Candidate) public candidates;\r\n    mapping(address => bool) public voters;\r\n    uint256 public candidatesCount;\r\n\r\n\r\n    constructor() public {\r\n        addCandidate(\"Sultan\");\r\n        addCandidate(\"Jungmo\");\r\n        addCandidate(\"Sunggyu\");\r\n    }\r\n\r\n    function addCandidate(string memory _name) private {\r\n        candidatesCount++;\r\n        candidates[candidatesCount] = Candidate(candidatesCount, _name, 0);\r\n    }\r\n\r\n    function addNewCandidate(string memory _name) public {\r\n        require(!voters[msg.sender], \"Voter cannot add a new candidate after voting.\");\r\n\r\n        candidatesCount++;\r\n        candidates[candidatesCount] = Candidate(candidatesCount, _name, 0);\r\n    }\r\n\r\n    function vote(uint256 _candidateId) public {\r\n        require(!voters[msg.sender], \"You have already voted.\");\r\n\r\n        require(_candidateId > 0 && _candidateId <= candidatesCount, \"Invalid candidate ID.\");\r\n\r\n        voters[msg.sender] = true;\r\n        candidates[_candidateId].voteCount++;\r\n\r\n    }\r\n}",
  "sourcePath": "C:\\MyProject\\capproject\\contracts\\Election.sol",
  "compiler": {
    "name": "solc",
    "version": "0.8.19+commit.7dd6d404.Emscripten.clang"
  },
  "schemaVersion": "3.4.16",
  "updatedAt": "2023-11-25T14:44:51.454Z",
  "networkType": "ethereum",
  "devdoc": {
    "kind": "dev",
    "methods": {},
    "version": 1
  },
  "userdoc": {
    "kind": "user",
    "methods": {},
    "version": 1
  }
}